S01700004763634170706C69636174696F6E312E737265635B
S11300000C943E000C945B000C945B000C945B001D
S11300100C945B000C945B000C945B000C945B00F0
S11300200C945B000C945B000C945B000C945B00E0
S11300300C945B000C9407010C945B000C945B0023
S11300400C945B000C945B000C945B000C945B00C0
S11300500C945B000C945B000C945B000C945B00B0
S11300600C945B000C945B008E009700A400AA0023
S1130070B000B500BB00C200C600CE0011241FBEF4
S1130080CFEFD8E0DEBFCDBF11E0A0E0B1E0EEE2FB
S1130090F3E002C005900D92A230B107D9F721E038
S11300A0A2E0B1E001C01D92AA30B207E1F70E94BC
S11300B06F010C9495010C9400008FEF84B98AB9F8
S11300C087EF8AB915B81BB808958BB11BB88BB1EB
S11300D01BB885B115B885B115B885B115B885B10A
S11300E015B885B115B80895CF93DF932091000119
S11300F0309101018217930709F458C0EC019093E1
S11301000101809300010E946500CA30D10508F006
S11301104CC0FE01EC5CFF4F0C948F01289A2C9A82
S11301202D9A2B9A5A9A5C9A85B185B93FC05A9AEE
S11301302B9A8BB18BB985B185B985B185B985B158
S113014085B985B185B932C05A9A289A299A2C9AC8
S11301502D9A2CC05A9A289A299A2B9A2D9A26C0FD
S11301605A9A5C9A299A2B9A21C05C9A289A299ABD
S11301702B9A2D9A1BC05C9A289A299A2C9A2D9A0C
S11301802B9A14C05A9A289A2B9A10C05C9A5A9A9D
S1130190289A299A2C9A2D9A2B9A08C05C9A5A9AD2
S11301A0289A299A2D9A2B9A01C02A9ADF91CF91E5
S11301B0089520E030E099E1892F8150F1F72F5F15
S11301C03F4F283682E43807B9F789E18093050167
S11301D088E692E4A0E0B0E08093060190930701E2
S11301E0A0930801B093090108954B9B08C00E9495
S11301F0D90089B183FB882780F990E00895089598
S113020082E08093810081E080936F0008951F92C3
S11302100F920FB60F9211248F939F938091030135
S1130220909104010196813191052CF4909304017D
S11302308093030108C0109204011092030195B148
S113024084E0892785B99F918F910F900FBE0F90FD
S11302501F901895E1ECF0E0808188618083E2ECE6
S1130260F0E08081866080831092C50087E68093E9
S1130270C4000895E0ECF0E0908195FFFDCF8093F9
S1130280C6000895ECE7F0E080818083808180647B
S11302908083EAE7F0E087E880838081806480835C
S11302A00895EAE7F0E0808180648083808186FDA0
S11302B0FDCF809178009091790096958795845030
S11302C008950E9442010E945D0080E090E00E9437
S11302D074000E9400010E942A01789408950E94EB
S11302E061010E94D9000E94F5000197D1F7809125
S11302F002018A3010F0109202018091020191E013
S1130300980F9093020190E00E9474008091020182
S11303100E943A010E9451010E943A01E2CFEE0F7D
S1110320FF1F0590F491E02D0994F894FFCF8F
S105032EFFFFCB
S9030000FC
